:100000000C948C050C94D3050C94D3050C94D30557
:100010000C94D3050C94D3050C94D3050C94D30500
:100020000C94D3050C94D3050C946C200C943F21B4
:100030000C9479170C94D3050C94D3050C94D30528
:100040000C94D3050C94D3050C94D3050C94D305D0
:100050000C94D3050C94DA170C94D3050C94D305A7
:100060000C94D3050C94D3050C94D3050C94D305B0
:100070000C94D3050C94D3050C94D3050C94D305A0
:100080000C94D3050C94D3050C94D3050C94D30590
:100090000C94D3050C94D3050C94D3050C94D30580
:1000A0000C94D3050C94D3050C94D30529001E00A1
:1000B0001F0020002100220023002400250026002C
:1000C00027002D002E002A002B0014001A00080023
:1000D000150017001C0018000C00120013002F0060
:1000E00030003100390004001600070009000A0042
:1000F0000B000D000E000F0033003400280000003C
:10010000E1001D001B000600190005001100100091
:10011000360037003800E50052000000E0000151D1
:10012000E2000000000000002C0000000000E600DB
:100130004800500051004F0035023A003B003C009F
:100140003D003E003F0040004100420043004400AB
:1001500045000100010001000100010000700100E4
:10016000010001004900010001000100010001003F
:100170000100010001000100010001000100010077
:100180000100010001000100010000000100010068
:10019000010001000100010001000100010049000F
:1001A0004C0001004B0000000100010001000000B4
:1001B00000000000010000000000010001004A00F2
:1001C0004E004D000100010001000100010001008E
:1001D0000100010001000100010001000100010017
:1001E0000100010001000100010001000100010007
:1001F00001000100010001000100010001000100F7
:1002000001000100010001000100010001000100E6
:1002100001000100010000000100010001000100D7
:1002200001000100010001000100010001000100C6
:1002300001000000010001000100000000000000BA
:1002400001000000000001000100010001000100A8
:100250000100010001000100010001000100010096
:100260000100010001000100010001000100010086
:100270000100010001000100010001000100010076
:100280000100010001000100010001000100010066
:100290000100010001000100010001000100010056
:1002A0000100000001000100010001000100010047
:1002B0000100010001000100010001000100000037
:1002C000010001000100000000000000010000002A
:1002D0000000010001000100010001000100010017
:1002E0000100010001000100010001000100010006
:1002F00001000100010001000100010001000100F6
:1003000001000100010001000100010001000100E5
:1003100001000100010001000100010001000100D5
:1003200001000100010001000100010001000000C6
:1003300001000100010001000100010001000100B5
:1003400001000100010001000100000001000100A6
:10035000010000000000000001000000000001009A
:100360000100010001000100010001000100010085
:100370000100010001000100010001000100010075
:100380000100010001000100010001000100010065
:100390000100010001000100010001000100010055
:1003A0000100010001000100010001000100010045
:1003B0000100010001000100010000000100010036
:1003C0000100010001000100010001000100010025
:1003D0000100010001000000010001000100000017
:1003E0000000000001000000000001000100010009
:1003F00001000100010001000100010001000100F5
:1004000001000100010001000100010001000100E4
:1004100001000100010001000100010001000100D4
:1004200001000100010001000100010001000100C4
:1004300001000100010001000100010001000100B4
:1004400001000100010000000100010001000100A5
:100450000100010001000100010001000100010094
:100460000100000001000100010000000000000088
:100470000100000000000100010001000100010076
:100480000100010001000100010001000100010064
:100490000100010001000100010001000100010054
:1004A0000100010001000100010001000100010044
:1004B0000100010001000100010001000100010034
:1004C0000100010001000100010001000100010024
:1004D0000100000001000100010001000100010015
:1004E0000100010001000100010001000100000005
:1004F00001000100010000000000000001000000F8
:1005000000000100010001000100010001000100E4
:1005100001000100010001000100010001000100D3
:1005200001000100010001000100010001000100C3
:1005300001000100010001000100010001000100B3
:1005400001000100010001000100010001000100A3
:100550000100010001000100010001000100000094
:100560000100010001000100010001000100010083
:100570000100010001000100010000000100010074
:100580000100000000000000010000000000010068
:100590000100010001000100010001000100010053
:1005A0000100010001000100010001000100010043
:1005B0000100010001000100010001000100010033
:1005C0000100010001000100010001000100010023
:1005D0000100010001000100010001000100010013
:1005E0000100010001000100010000000100010004
:1005F00001000100010001000100010001000100F3
:1006000001000100010000000100010001000000E4
:1006100000000000010000000000010001000100D6
:1006200001000100010001000100010001000100C2
:1006300001000100010001000100010001000100B2
:1006400001000100010001000100010001000100A2
:100650000100010001000100010001000100010092
:100660000100010001000100010001000100010082
:100670000100010001000000010001000100010073
:100680000100010001000100010001000100010062
:100690000100000001000100010000000000000056
:1006A0000100000000000100010001000100010044
:1006B0000100010001000100010001000100010032
:1006C0000100010001000100010001000100010022
:1006D0000100010001000100010001000100010012
:1006E0000100010001000100010001000100010002
:1006F00001000100010001000100010001000100F2
:1007000001000000010001000100010001000100E2
:1007100001000100010001000100010001000000D2
:1007200001000100010000000000000001000000C5
:1007300000000100010001000100010001000100B2
:1007400001000100010001000100010001000100A1
:100750000100010001000100010001000100010091
:100760000100010001000100010001000100010081
:100770000100010001000100010001000100010071
:100780000100010001000100010001000100000062
:100790000100010001000100010001000100010051
:1007A0000100010001000100010000000100010042
:1007B0000100000000000000010000000000010036
:1007C0000100010001000100010001000100010021
:1007D0000100010001000100010001000100010011
:1007E0000100010001000100010001000100010001
:1007F00001000100010001000100010001000100F1
:1008000001000100010001000100010001000100E0
:1008100001000100010001000100000001000100D1
:1008200001000100010001000100010001000100C0
:1008300001000100010000000100010001000000B2
:1008400000000000010000000000010001000100A4
:100850000100010001000100010001000100010090
:100860000100010001000100010001000100010080
:100870000100010001000100010001000100010070
:100880000100010001000100010001000100010060
:100890000100010001000100010001000100010050
:1008A0000100010001000000010001000100010041
:1008B0000100010001000100010001000100010030
:1008C0000100000001000100010000000000000024
:1008D0000100000000000100010001000100010012
:1008E0000100010001000100010001000100010000
:1008F00001000100010001000100010001000100F0
:1009000001000100010001000100010001000100DF
:1009100001000100010001000100010001000100CF
:1009200001000100010001000100010001000100BF
:1009300001000000010001000100010001000100B0
:1009400001000100010001000100010001000000A0
:100950000100010001000000000000000100000093
:1009600000000100010001000100010012036B0002
:100970006500790062006F00610072006400000091
:10098000160371006D006B006200750069006C0059
:1009900064006500720000000403090409026D0090
:1009A000040100A0FA09040000010301010009216B
:1009B000110100012240000705810308000A090413
:1009C00001000103010200092111010001224D0073
:1009D0000705820308000A09040200010300000061
:1009E0000921110100012236000705830308000ACE
:1009F0000904030001030000000921110100012284
:100A000039000705840320000112011001000000D5
:100A100008EDFE606001000102000105010906A168
:100A200001050719E029E7150025019508750181E1
:100A300002050819012905950575019102950175B1
:100A40000391010507190029F71500250195F8758F
:100A5000018102C005010980A1018502160100265D
:100A600003001A81002A8300751095018100C005DA
:100A70000C0901A1018503160100269C021A010040
:100A80002A9C02751095018100C005010902A1018F
:100A90000901A10005091901290515002501950580
:100AA0007501810295017503810105010930093144
:100AB0001581257F95027508810609381581257FE6
:100AC000950175088106050C0A38021581257F9568
:100AD0000175088106C0C005010906A101050719B5
:100AE000E029E7150025019508750181029501753A
:100AF00008810105081901290595057501910295DF
:100B000001750391010507190029FF150026FF0053
:100B1000950675088100C00011241FBECFEFDAE0F2
:100B2000DEBFCDBF04B603FE27C08091470290917F
:100B30004802A0914902B0914A028730904BA740E9
:100B4000B04BD1F410924702109248021092490221
:100B500010924A0214BE84B7877F84BF0FB6F89400
:100B6000A895809160008861809360001092600079
:100B70000FBEE0E0F8E3099511E0A0E0B1E0E8E5A0
:100B8000F9E402C005900D92AA33B107D9F722E02B
:100B9000AAE3B1E001C01D92A734B207E1F70E94B9
:100BA000C21D0C947E240C94000090E080E0089517
:100BB0000895089581E0089581FF03C06E9A7698A4
:100BC00008956E98FCCF81E008950C94DA050E9498
:100BD000CA0F2FEF84E39CE0215080409040E1F762
:100BE00000C000000C94FD17EF92FF920F931F932B
:100BF000CF93DF938C01FC01E080F1808091740140
:100C0000811140C082818823C1F1C7010E944F1524
:100C1000C82F682FC7010E94F814B7018C2F0E94BB
:100C20002C07EC01B8010E94E505882309F44BC0AC
:100C3000B801CE010E943509882309F444C0C531AA
:100C4000F0E7DF0720F5C23080E7D80708F04DC095
:100C5000C115E0E7DE0791F1C130D047E1F181E055
:100C600080933C0180933D01C801DF91CF911F919A
:100C70000F91FF90EF900C94E305C7010E94261599
:100C8000C82FCBCFC7010E944F15B701C8CFCC33B7
:100C900080E7D80709F49BC0CD33D04701F7F801AE
:100CA0008281882309F4BAC010923D010E94A917DD
:100CB00090933B0180933A0180E296C0F8018281D3
:100CC00081110E94E70580E0DF91CF911F910F9184
:100CD000FF90EF900895F80182818823A1F380911D
:100CE0000702816080930702EECFF801828188239A
:100CF00009F4BACF0E940A17811102C00E94F016AF
:100D00000E94271790E09093390280933802FE01E9
:100D1000E350F047809138028160E231F10538F408
:100D2000E058FB4D0C942E24809138028260809311
:100D30003802809138020E942B170E94CA0FC3CF3D
:100D4000809138028460F3CF809138028860EFCFC1
:100D5000809138028061EBCF809138028062E7CFCA
:100D6000809138028064E3CF809138028068DFCFC1
:100D7000809138028C60DBCF809138028E7FD7CF94
:100D8000809138028D7FD3CF809138028B7FCFCF77
:100D900080913802877FCBCF809138028F7EC7CF7A
:100DA000809138028F7DC3CF809138028F7BBFCF77
:100DB000809138028F77BBCF80913802837FB7CF85
:100DC00090913802892F97FB87F98058B0CFF801AE
:100DD0008281882361F010923C010E94A9179093B0
:100DE0003B0180933A0182E00E942F0D6CCF8091ED
:100DF0003C0181110FC080913A0190913B010E940A
:100E0000B517883C910530F486E20E94040C86E216
:100E10000E94E00C82E00E94360D55CF80913D018A
:100E200081110FC080913A0190913B010E94B5174A
:100E3000883C910530F487E20E94040C87E20E940E
:100E4000E00C80E2E8CF0C9484090C9486090C94A1
:100E5000DC050C9427070895972F70E02EE0929FF1
:100E6000600D711D1124FB0196E4899FE00DF11DB9
:100E70001124EE0FFF1FE455FF4F859194910895C3
:100E8000FC01EE0FFF1FE459F64F859194910895F0
:100E90000E942C070E94B9089C01811540E4940728
:100EA00008F097C0211580E3380708F0FAC0203E0B
:100EB000310508F074C0203C310508F0E5C0283A3F
:100EC000310588F4253A310508F0E2C021303105BA
:100ED00009F477C0C9010497813A910508F471C0FB
:100EE00030E020E06EC0C901885A91094597C0F7EB
:100EF000283A310509F4FEC0293A310509F4FDC04C
:100F00002A3A310509F4FCC02B3A310509F4FBC03B
:100F10002C3A310509F4FAC02B3B310509F4F9C02C
:100F20002C3B310509F4F8C02D3A310509F4F7C01E
:100F3000203B310509F4F6C02E3A310509F4F5C01D
:100F40002F3A310509F4F4C0213B310509F4F3C00F
:100F5000223B310509F4F2C0233B310509F4F1C00D
:100F6000243B310509F4F0C0253B310509F4EFC0FD
:100F7000263B310509F4EEC0273B310509F4EDC0ED
:100F8000283B310509F4ECC0293B310509F4EBC0DD
:100F90002A3B310509F4EAC020E034E412C02115EF
:100FA00090E2390780F42F3F310509F050F4283ED4
:100FB000310538F0C901805F91093065409708F02C
:100FC0008FCFC9010895C9019F700E9440079C01FD
:100FD000F8CF8115944508F041C0211583E5380705
:100FE00008F06AC0211592E5390738F5211541E569
:100FF000340708F05CC0211580E5380708F454C0B8
:10100000C90134E0969587953A95E1F78370422FB0
:1010100046954695437090E2499FA0011124582BB4
:10102000822F837021E030E002C0220F331F8A95A7
:10103000E2F7242B352B3C68C4CFC9018370992774
:1010400041E050E002C0440F551F8A95E2F7269513
:10105000269580E2289F90011124EBCF211596E57B
:10106000390748F4922F882721153545C8F59C018A
:10107000246F306AA6CFC90190563F708115904108
:1010800008F02ECF30629DCFC901805C91099DCFC1
:10109000253A310549F1263A310549F522E830E48F
:1010A00090CF3327306C8DCF3F70306A8ACF322F8C
:1010B0002227216F306A85CFC9018370992741E0CB
:1010C00050E002C0440F551F8A95E2F726952695F9
:1010D00080E2289F90011124242B352B3A6871CF90
:1010E00088279F719C01CECF21E830E46ACF23E8A6
:1010F00030E467CF22EE34E464CF29EE34E461CFEC
:101100002AEE34E45ECF25EB34E45BCF26EB34E407
:1011100058CF23EB34E455CF24EB34E452CF27EB04
:1011200034E44FCF2CEC34E44CCF2DEC34E449CFF5
:1011300023E835E446CF2AE835E443CF22E935E415
:1011400040CF24E935E43DCF21E236E43ACF23E233
:1011500036E437CF24E236E434CF25E236E431CF2B
:1011600026E236E42ECF27E236E42BCF2AE236E41D
:1011700028CF803E910581F1C8F48133910509F4AF
:1011800062C048F48932910509F456C08A3291054B
:1011900009F460C0089589339105B9F0823891054A
:1011A000A1F08533910509F440C00895863E91056C
:1011B00061F138F4823E9105B1F0833E9105E1F092
:1011C0000895873E910551F10895209138022370CA
:1011D000D9F080EE90E008952091380220FF14C0ED
:1011E00089E390E008952091380222FF0DC024FD8C
:1011F00009C083EE90E008952091380222FD31C0AD
:1012000024FF02C090E080E008952091380223FF7F
:10121000FBCF24FDF7CF87EE90E0089520913802B0
:1012200023FFEECF86EE90E008952091380225FF4F
:10123000EBCF89E290E008952091380225FFE4CFBA
:1012400085E390E008952091380226FFDDCF8AE201
:1012500090E008952091380226FFD6CF81E390E0F8
:10126000089582EE90E0089508950F931F93CF9311
:101270008C01FB018281811106C0C1E08C2FCF91CE
:101280001F910F910895C0914B01C11125C00531E7
:10129000104799F70E94340981E080934B010E9426
:1012A000A91790934A018093490110923E01109230
:1012B000400110923F0110924201109241011092A0
:1012C0004401109243011092460110924501109280
:1012D000480110924701D2CF8091490190914A0173
:1012E0000E94B517883C910540F680913E01E82F99
:1012F000F0E0EE0FFF1FE15CFE4F118300838F5F74
:1013000080933E01C0E0BACF0C94D8050C94D90567
:10131000CF93DF9385B7806885BF85B7806885BF29
:10132000A1E2B1E046E251E0C1E0D0E08D91E82FCA
:10133000E295EF70F0E061A18F709E0101C0220F75
:101340008A95EAF7922F9095962391A382A1822BFA
:1013500082A34A175B0751F7A3E1B1E061E070E0B7
:101360008D91E82FE295EF70F0E041A18F709B0125
:1013700001C0220F8A95EAF7922F9095942391A3AA
:1013800082A1822B82A381E0A132B80749F7109293
:1013900057011092560110924D0110924C0110927B
:1013A00059011092580110924F0110924E01109263
:1013B0005B0110925A01109251011092500110924B
:1013C0005D0110925C011092530110925201109233
:1013D0005F0110925E011092550110925401DF914D
:1013E000CF910C9423074F925F927F928F929F929E
:1013F000AF92BF92CF92DF92EF92FF920F931F9323
:10140000CF93DF939CE4492E91E0592E21E2E22E06
:1014100021E0F22E01E010E099249394E201A990DA
:10142000B9902E01DE011E921E92F70181917F017B
:10143000E82FE295EF70F0E091A18F70980101C064
:10144000220F8A95EAF7892F822B81A382A1822E0F
:101450008094882182A380EA8A95F1F783E1C82EDF
:1014600081E0D82E90E080E0E60179916E01472F6F
:1014700042954F7050E0EA0178A04D915C91119730
:101480007F70E80102C0CC0FDD1F7A95E2F7BE0144
:10149000672109F072C0B801082E02C0660F771FDD
:1014A0000A94E2F7462B572B11965C934E930196C4
:1014B0008E309105C9F681A1882281A282A1282BB4
:1014C00022A38D919C91A816B90641F090926001DB
:1014D0000E94A9179093620180936101D6E54D1691
:1014E000D1E05D0609F09ACF80916001882391F1E7
:1014F00080916101909162010E94B517069750F1A9
:1015000080914C0190914D01909357018093560129
:1015100080914E0190914F01909359018093580111
:10152000809150019091510190935B0180935A01F9
:10153000809152019091530190935D0180935C01E1
:10154000809154019091550190935F0180935E01C9
:10155000109260010E94250781E0DF91CF911F91D9
:101560000F91FF90EF90DF90CF90BF90AF909F9042
:101570008F907F905F904F90089570E060E092CFE1
:10158000E82FF0E0EE0FFF1FEA5AFE4F80819181B5
:101590000895089590936801809367010895E091FC
:1015A0006701F0916801309721F00190F081E02D02
:1015B000099480E00895E0916701F0916801309707
:1015C00021F00280F381E02D09940895E0916701F4
:1015D000F0916801309721F00480F581E02D0994A5
:1015E000089520916501309166012817390771F03F
:1015F0009093660180936501E0916701F091680125
:10160000309721F00680F781E02D0994089520910C
:101610006301309164012817390771F090936401D8
:1016200080936301E0916701F0916801309721F0A8
:101630000084F185E02D0994089508950C941D0B04
:101640000E94A0170E9488090C946A185F926F92FA
:101650007F928F929F92AF92BF92CF92DF92EF9242
:10166000FF920F931F93CF93DF9300D000D00F9280
:10167000CDB7DEB70E94F3099AE6A92E91E0B92E04
:1016800010E000E088248394912C502E802F0E943B
:10169000C00A7C01F501C190D1905F01C816D9063E
:1016A00009F45DC08091070281FD0E94C90A90E0A3
:1016B00080E0CE24DF243401082E02C0660C771CA3
:1016C0000A94E2F7960126213721232B09F442C020
:1016D00089835A82E620F72081E0EF2809F480E030
:1016E0008B830E94A9178160782F9D838C83498109
:1016F0005A816B818D810E94DB0B000F111FF80155
:10170000E659FE4F80819181682679267182608238
:101710000E94171B0E94CF0A909169018917B1F1AD
:101720000E94CF0A809369010F900F900F900F9045
:101730000F90DF91CF911F910F91FF90EF90DF906D
:10174000CF90BF90AF909F908F907F906F905F9061
:101750000C94290701968E30910509F0ACCF0F5FEC
:101760001F4F0530110509F090CF8FEF89838A83D1
:101770001B820E94A9178160782F9D838C834981E9
:101780005A816B818D810E94DB0BC2CF0F900F902D
:101790000F900F900F90DF91CF911F910F91FF90BD
:1017A000EF90DF90CF90BF90AF909F908F907F9001
:1017B0006F905F900895CF93DF93CDB7DEB72B97EF
:1017C0000FB6F894DEBF0FBECDBF4F835887698731
:1017D0007A878B871E8285E0FE013796DE0111969F
:1017E00001900D928A95E1F749815A816B817C8144
:1017F0008D819E812B960FB6F894DEBF0FBECDBFB4
:10180000DF91CF910C945212882309F4D8C082380A
:1018100071F40E94CF0A81FDD2C089E30E94F715BE
:101820000E94C11689E30E9434160C94C1168338B5
:1018300059F40E94CF0A80FDC2C083E50E94F715CB
:101840000E94C11683E5EFCF843859F40E94CF0A75
:1018500082FDB5C087E40E94F7150E94C11687E497
:10186000E2CF9CEF980F913A18F40E94F715DDCF64
:1018700090E2980F983050F4877091E001C0990F72
:101880008A95EAF7892F0E947816CFCF9BE5980FAB
:10189000933070F4853A31F0863A39F083E890E07D
:1018A0000C94F10A81E890E0FBCF82E890E0F8CF59
:1018B00098E5980F953108F082C0883A09F440C045
:1018C000893A09F440C08A3A09F440C08B3A09F4D5
:1018D00040C08C3A09F440C08B3B09F440C08C3BBB
:1018E00009F440C08D3A09F440C0803B09F440C07F
:1018F0008E3A09F440C08F3A09F440C0813B09F4A4
:1019000040C0823B09F440C0833B09F440C0843BA3
:1019100009F440C0853B09F440C0863B09F440C04F
:10192000873B09F440C0883B09F440C0893B09F477
:1019300040C08A3B09F440C090E080E00C94070B63
:1019400082EE90E0FBCF89EE90E0F8CF8AEE90E057
:10195000F5CF85EB90E0F2CF86EB90E0EFCF83EB15
:1019600090E0ECCF84EB90E0E9CF87EB90E0E6CF1E
:101970008CEC90E0E3CF8DEC90E0E0CF83E891E059
:10198000DDCF8AE891E0DACF82E991E0D7CF84E930
:1019900091E0D4CF81E292E0D1CF83E292E0CECF4A
:1019A00084E292E0CBCF85E292E0C8CF86E292E07B
:1019B000C5CF87E292E0C2CF8AE292E0BFCF08951E
:1019C000882309F44BC0823871F40E94CF0A81FF4A
:1019D00045C089E30E94F7150E94C11689E30E9461
:1019E00034160C94C116833859F40E94CF0A80FF34
:1019F00035C083E50E94F7150E94C11683E5EFCF3D
:101A0000843859F40E94CF0A82FF28C087E40E94DC
:101A1000F7150E94C11687E4E2CF9CEF980F913A28
:101A2000F0F290E2980F983050F4877091E001C086
:101A3000990F8A95EAF7892F0E947E16D2CF9BE5EF
:101A4000980F933020F490E080E00C94F10A885ACB
:101A5000853120F490E080E00C94070B08958823F2
:101A600021F00E9478160C94C1160895882321F065
:101A70000E947E160C94C11608958F929F92AF9289
:101A8000BF92DF92EF92FF920F931F93CF93DF935A
:101A900000D000D00F92CDB7DEB77C016D83798383
:101AA000FC01058102950F70128111110E94971699
:101AB0000E94F015D82E882371F01123A1F08D819A
:101AC000805E883080F082E00E94DA150E94F01576
:101AD00091E0D82ED926E981E295EF70F0E0EE563C
:101AE000FB4D0C942E24D12CF6CF09810F70F98177
:101AF000F07F11F00295007F1123B1F0002361F017
:101B00008D81805E883018F02D81211109C0802FD1
:101B10000E9478160E94C1168D810E94040C15C087
:101B2000802F0E948916F6CF8D810E94E00C002341
:101B300061F08D81805E883018F03D81311129C0BF
:101B4000802F0E947E160E94C116DD2009F4D3C1A9
:101B50000E94CD1580FDCFC1F70112820E94C715EA
:101B60000E941014C7010E948C0F0E94C7150F908D
:101B70000F900F900F900F90DF91CF911F910F91C9
:101B8000FF90EF90DF90BF90AF909F908F900C945C
:101B90003214802F0E948F16D6CF49814F70B42EF9
:101BA0005981507F503219F0B29480EFB8228D8164
:101BB000882369F0813029F1112369F1002359F05C
:101BC000F701858180FFA8CF8F70858304C0112322
:101BD00061F0011104C08B2D0E942F0DB6CF8B2D0B
:101BE0000130D1F70E94AB16B0CF011106C00E94A0
:101BF000AE168B2D0E94360DA8CF013009F4A5CF6B
:101C0000F6CF112321F0063008F09FCFE4CF053046
:101C100008F09BCFEECF002361F38D810E94E00C92
:101C200094CF898186958695837069F0813009F01B
:101C30008CCF8D8199819370111102C090E080E06A
:101C40000E94070B82CF8D8199819370111102C080
:101C500090E080E00E94F10A78CF8D81112329F075
:101C60000E94251A0E940C1B70CF0E948D1AFACF79
:101C70008981837009F05FC0111167CF2D81229592
:101C800026952770220F220F8D818F7090E0B0E093
:101C9000A0E04C015D01022E04C0880C991CAA1C16
:101CA000BB1C0A94D2F7FD8160E070E0CB01F4FF29
:101CB0000FC06FE070E080E090E004C0660F771F17
:101CC000881F991F2A95D2F76095709580959095F9
:101CD00029812695269523702D832230B1F023305B
:101CE00019F19B01AC01282939294A295B2929834B
:101CF0003A834B835C833D8169817A818B819C81AE
:101D00003130B1F00E949D1320CF9B01AC012829F6
:101D100039294A295B2929833A834B835C83CA0189
:101D2000B9010E94C71311CF0E949D13C501B401D0
:101D30000E9473130ACF8695112311F08981817057
:101D4000882309F402CF2D81229526952770220F32
:101D5000220F8D818F7090E0B0E0A0E04C015D011A
:101D6000022E04C0880C991CAA1CBB1C0A94D2F732
:101D70003D8160E070E0CB0134FF0FC06FE070E0A8
:101D800080E090E004C0660F771F881F991F2A9596
:101D9000D2F76095709580959095498146954695C6
:101DA00043704D834230B1F0433019F19B01AC01D7
:101DB000282939294A295B2929833A834B835C8363
:101DC0003D8169817A818B819C813130B1F00E94A3
:101DD000A314BBCE9B01AC01282939294A295B29D0
:101DE00029833A834B835C83CA01B9010E94CD14D5
:101DF000ACCE0E94A314C501B4010E947914A5CEF3
:101E00003D81323F09F447C080F4303F79F1313FE2
:101E1000D9F1832F805E8031D0F0112309F456C0B0
:101E200001117ACE89818F7133C04D81433FD1F149
:101E3000443F99F7112309F43FC089818F71898349
:101E40000E94101463E089810E94D1157ECE5D81CD
:101E50005F705D8389818F71112321F00E941014BE
:101E60008D81BACE0E9432148D81C4CE112341F0EF
:101E7000053008F06ACE89818F710E94571465CEB3
:101E8000063008F062CEF7CF89818F71112339F0C7
:101E90000E9410145ACE89818F711123C9F30E94B8
:101EA000321453CE112329F089818F710E94FB13C4
:101EB0004CCE0E94F11349CE81E00E94DA15023027
:101EC00008F443CE82E00E94DA153FCE0111A5CE80
:101ED00089818F71E4CF49814F706D81C7010E9464
:101EE000D5050E94EC1231CE49814F706D81C7013A
:101EF0000E942B072ACE0F900F900F900F900F90FB
:101F0000DF91CF911F910F91FF90EF90DF90BF90E5
:101F1000AF909F908F9008950F931F93CF93DF936F
:101F2000EC018B819C81892B29F0888199818923FF
:101F30008F3F29F4DF91CF911F910F910895CE012A
:101F40000E94F4058823B1F3688179818A810E9417
:101F50009D158C010E94F7140E946813B801CE01F0
:101F6000DF91CF911F910F910C943D0D0E94971618
:101F70000E94A8160E946A160E94C1160E94FD1BAC
:101F80000E940C1B90E080E00E94F10A90E080E04B
:101F90000C94070B0E9486160C94B60F0E949115A4
:101FA000282F892F82958F70903C80F48A30B0F46E
:101FB000843020F4823090F480E008958630E1F798
:101FC00081E0203E88F0213FB9F70EC08C3011F03F
:101FD0008F3091F793FB882780F9089581E0203FA7
:101FE00039F018F4203E40F70895243F29F7FCCF3C
:101FF0000895CF93DF9300D000D00F92CDB7DEB716
:102000000F900F900F900F900F90DF91CF91089548
:10201000CF93DF9300D000D000D0CDB7DEB72696A7
:102020000FB6F894DEBF0FBECDBFDF91CF910895FC
:102030001F93CF93DF93E091750116E080917601B5
:102040008E1304C0DF91CF911F910895CE2FD0E061
:102050001E9FF0011124E958FE4F40815181628199
:102060007381848195810E940810FE013196E7708A
:10207000E5CF4091A7015091A8016091A90170910D
:10208000AA018091AB019091AC010C9408101F93B0
:10209000CF93DF938091AC01807FC1F48091A9013F
:1020A0008823A1F080917501C09176016091A7010C
:1020B0007091A8014091AA015091AB01D62FD7236E
:1020C000DA01A095B09516E0C81304C0DF91CF9156
:1020D0001F91089590E04115510511F0DF3F31F453
:1020E00001968770F1CF2A0F3B1F17C0189FF00190
:1020F000199FF00D1124E958FE4F21812713F0CFCD
:1021000020812613EDCF22812111EACF2381348152
:102110002417350740F3241B350B283C310500F705
:102120002091AC012F7020612093AC0126E0289F04
:10213000F001299FF00D1124E458FE4F80818F702B
:102140008061808387EA91E00E948C0FDF91CF91BC
:102150001F910C9418109F92AF92BF92CF92DF9272
:10216000EF92FF920F931F93CF93DF93CDB7DEB71C
:102170002B970FB6F894DEBF0FBECDBF8C0185E064
:10218000F801DE01179601900D928A95E1F7D801CA
:102190004C9111965C9111971296EC901297809148
:1021A000AA019091AB01009709F46BC12091A7019E
:1021B0003091A801632F62236F3F09F462C1139627
:1021C000CD90DC909090A901992009F4F8C0C81630
:1021D000D90608F43FC0F601E81BF90BCF01FF2434
:1021E000F394883C910508F0F12C87EAA82E81E051
:1021F000B82E8091AC01982F907FFF2009F4B7C0D2
:10220000911180C0FE2C35132AC0241328C0E11080
:1022100026C08F7080618093AC010E943910C50187
:102220000E948C0F8091AC01D80115968C938F2D54
:102230002B960FB6F894DEBF0FBECDBFDF91CF91C6
:102240001F910F91FF90EF90DF90CF90BF90AF90D4
:102250009F900895809590958C0D9D1DC0CFCD28A1
:1022600029F0842F85238F3F09F019C180E0B82F12
:10227000B170DB2EE09175012091760136E080FD92
:102280001CC0EE20A1F28091AC0181608093AC0172
:10229000F12CCDCF8E2F90E03E9FF0011124E95814
:1022A000FE4F6181651306C06081641303C06281C3
:1022B0006E11E7CFFC013196E770E213EBCF4F834D
:1022C00058878F8198850E949115292F22952F700C
:1022D000903260F0225F2F70223078F49F7051F0BE
:1022E000F8019581907F31F4D12C0AC09F7011F0D4
:1022F0008823D1F3805E8830B8F3C8010E948C0F28
:10230000FD2C95CF351306C0241304C0D801EE2050
:1023100009F47BC04F8358878F8198850E94CE0F28
:10232000882309F4B8C0EE2009F4B5C08091AC014F
:10233000803270F02091A7013091A8013A8329835F
:102340001B82DD82CC828E83CE0101960E948C0F8F
:1023500086E0F801A7EAB1E001900D928A95E1F7D5
:102360000E9447100E943910FF24F39460CF91110E
:1023700013C07C2DDB86CA866E2D8B850E94F90FDB
:1023800087EA91E00E948C0F86E0F50111928A9510
:10239000E9F70E9439104BCF3513BCCF2413BACFC5
:1023A000E110B8CFD80115968C93C8010E948C0F0C
:1023B00086E0F50111928A95E9F7F92C38CFC81615
:1023C000D90688F1B601681B790BCB01F12C883C4A
:1023D000910508F047C0FE2CEE2009F45CC03513CF
:1023E00030C024132EC08091AC0180FD21C0982FF5
:1023F000907FF1F0D80115968C931597903F39F0A6
:10240000982F907F905F8F70892B15968C93C801C1
:102410000E948C0F86E0F801A7EAB1E001900D92CE
:102420008A95E1F7B6CF809590958C0D9D1DCECF06
:1024300086E0F801A7EAB1E001900D928A95E1F7F4
:10244000F6CE4F8358878F8198850E94CE0F8111D9
:102450007FCF8091AC0181608093AC01C8010E9464
:102460008C0FE5CE7C2DDB86CA866E2D8B850E9477
:10247000F90F86E0E7EAF1E0DF011D928A95E9F7BE
:1024800088CFEE2041F04F8358878F8198850E9436
:10249000CE0F81115DCFC8010E948C0F65CF81E006
:1024A0008E25E5CE1F93CF93DF93CDB7DEB72C9764
:1024B0000FB6F894DEBF0FBECDBF4F835887698734
:1024C0007A878B879C87CE0107960E94AB10882362
:1024D00069F08A859B85892B39F04F815885842F37
:1024E00085238F3F09F071C016E05FC086E0FE01D2
:1024F0003796DE01119601900D928A95E1F78A8553
:102500009B85892B89F388859F8189238F3F61F380
:102510002091760130E0C90101968770992740919A
:1025200075014817190671F40E94CA0F10927601BE
:102530001092750186E0E7EAF1E0DF011D928A95CD
:10254000E9F7D2CF96E0929FD001939FB00D11246E
:10255000A958BE4FFE01319601900D929A95E1F770
:10256000809376010E941810BFCF819FC001112473
:1025700089589E4F0E94AB108823E9F0E0917501C5
:102580001E9FF0011124E958FE4F40815181628164
:102590007381848195810E9408108091750190E07B
:1025A00001968770992780937501809175019091AC
:1025B00076018913DACF2C960FB6F894DEBF0FBEE2
:1025C000CDBFDF91CF911F91089569857A858B8565
:1025D0009C850E94081088CFEF92FF920F931F9363
:1025E000CF93DF938C01892B89F0F12CEE24E394B7
:1025F000E8012196F8018491843709F457C0A0F4CA
:10260000823009F43EC048F48130D1F0DF91CF919F
:102610001F910F91FF90EF9008959CEF980F9037C6
:10262000A8F70E94040C0AC0853709F44CC09CE747
:10263000980F903758F78F770E94E00C8E0116C0E4
:102640000E5F1F4FFE01849190E2980F983060F466
:102650008770FE2D01C0FF0F8A95EAF78F2F0E9429
:102660009A160E94C11602C00E94040C8F2D815040
:1026700008F4BECFEFE9FFE03197F1F700C00000AA
:10268000F6CF0E5F1F4FFE01849190E2980F9830B5
:1026900050F48770FE2D01C0FF0F8A95EAF78F2F47
:1026A0000E94A016DECF0E94E00CE0CF0E5F1F4F0D
:1026B000FE01C491C150D0F28FE99FE00197F1F77C
:1026C00000C00000F7CF0E5F1F4FFE01F490CECF89
:1026D00008956093DE017093DF018093E001909391
:1026E000E1010C94B60FCF93DF9300D000D0CDB7AB
:1026F000DEB769837A838B839C838091DE0190911E
:10270000DF01A091E001B091E10129813A814B8183
:102710005C81822B932BA42BB52B8093DE019093AD
:10272000DF01A093E001B093E1010F900F900F90B3
:102730000F90DF91CF910C94B60FCF93DF9300D021
:1027400000D0CDB7DEB769837A838B839C83809179
:10275000DE019091DF01A091E001B091E1012981BA
:102760003A814B815C8182239323A423B5238093F8
:10277000DE019093DF01A093E001B093E1010F909F
:102780000F900F900F90DF91CF910C94B60FCF93D5
:10279000DF9300D000D0CDB7DEB769837A838B8317
:1027A0009C838091DE019091DF01A091E001B091C6
:1027B000E10129813A814B815C8182279327A427FB
:1027C000B5278093DE019093DF01A093E001B093E1
:1027D000E1010F900F900F900F90DF91CF910C942B
:1027E000B60F1092DA011092DB011092DC01109208
:1027F000DD010C94B60F41E050E060E070E004C0F1
:10280000440F551F661F771F8A95D2F74093DA0150
:102810005093DB016093DC017093DD010C94B60FE3
:10282000282F81E090E0A0E0B0E004C0880F991F5D
:10283000AA1FBB1F2A95D2F74091DA015091DB0104
:102840006091DC017091DD01842B952BA62BB72BB9
:102850008093DA019093DB01A093DC01B093DD015A
:102860000C94B60F41E050E060E070E004C0440F0B
:10287000551F661F771F8A95D2F740955095609532
:1028800070958091DA019091DB01A091DC01B0910B
:10289000DD0184239523A623B7238093DA01909347
:1028A000DB01A093DC01B093DD010C94B60F282F5F
:1028B00081E090E0A0E0B0E004C0880F991FAA1F5B
:1028C000BB1F2A95D2F74091DA015091DB0160914C
:1028D000DC017091DD0184279527A627B727809317
:1028E000DA019093DB01A093DC01B093DD010C943D
:1028F000B60FCF93DF9300D000D0CDB7DEB769839A
:102900007A838B839C838091DA019091DB01A09183
:10291000DC01B091DD0129813A814B815C81822B00
:10292000932BA42BB52B8093DA019093DB01A0931A
:10293000DC01B093DD010F900F900F900F90DF91AD
:10294000CF910C94B60FCF93DF9300D000D0CDB7CA
:10295000DEB769837A838B839C838091DA019091BF
:10296000DB01A091DC01B091DD0129813A814B812D
:102970005C8182239323A423B5238093DA0190936F
:10298000DB01A093DC01B093DD010F900F900F905D
:102990000F90DF91CF910C94B60FCF93DF9300D0BF
:1029A00000D0CDB7DEB769837A838B839C83809117
:1029B000DA019091DB01A091DC01B091DD01298168
:1029C0003A814B815C8182279327A427B527809386
:1029D000DA019093DB01A093DC01B093DD010F904D
:1029E0000F900F900F90DF91CF910C94B60F089538
:1029F000E82F2EE0929FE00D11248E2F877041E08A
:102A000001C0440F8A95EAF7E695E695E69585E0DC
:102A1000E89FF0011124E355FE4F30E020E070E024
:102A20005191DF011197CB01022E02C09695879537
:102A30000A94E2F7817081958527842385278C93FA
:102A40002F5F3F4F2530310559F70895E82F2EE0CD
:102A5000929FE00D11249E2F9770E695E695E695DE
:102A600085E0E89FF0011124E355FE4F50E040E07F
:102A700080E0219130E0092E02C0369527950A9416
:102A8000E2F721703327042E01C0220F0A94EAF7DF
:102A9000822B4F5F5F4F4530510559F70895BF9224
:102AA000CF92DF92EF92FF920F931F93CF93DF931A
:102AB0008C01C090DA01D090DB01E090DC01F09055
:102AC000DD018091DE019091DF01A091E001B091E4
:102AD000E101C82AD92AEA2AFB2ACFE1D0E0BC2E9C
:102AE000D701C6010C2E04C0B695A795979587957A
:102AF0000A94D2F780FD0EC0219788F7B12C8B2D58
:102B0000DF91CF911F910F91FF90EF90DF90CF90C9
:102B1000BF900895B8018C2F0E944807019761F378
:102B2000EECFCF93DF93D82FC92F0E944F156D2F73
:102B30007C2FDF91CF910C9448071F93CF93DF93A5
:102B4000162FD72F90917401992339F0862F972F44
:102B5000DF91CF911F910C949115882391F0862FCE
:102B6000972F0E944F15C82F682F812F9D2F0E94ED
:102B7000F814612F7D2F8C2FDF91CF911F910C9432
:102B80004807862F972F0E942615C82FF2CF8091D5
:102B9000E20185958595859508958091E20187707C
:102BA000089598E0899F90011124622B6093E201BF
:102BB0000C9410149091E201809589238093E20196
:102BC000282F277061F4282F082E000C330B921742
:102BD000130629F08595859585950C9432140895F2
:102BE0009091E201977081E009F480E0089590915E
:102BF00012019923E1F09091380297FF18C0E82F55
:102C0000E695E695E695EF3139F120910001309196
:102C10000101E20FF32FF11D877021E030E001C0C8
:102C2000220F8A95EAF78181822B81830895209172
:102C3000000130910101F90132969FEF40E051917E
:102C4000851751F09F3F19F4511101C0942F4F5F28
:102C50004E31A9F79F3F09F40895290F311D97FDC3
:102C60003A95F9018283089590911201992301F117
:102C70009091380297FF1CC0E82FE695E695E695FF
:102C8000EF3139F12091000130910101E20FF32F72
:102C9000F11D877021E030E0A90102C0440F551FEB
:102CA0008A95E2F7CA0180959181892381830895ED
:102CB0002091000130910101F9013296205E3F4FD1
:102CC0009191891303C0DF0111971C92E217F3075A
:102CD000B9F7089581E090E0E0910001F0910101E1
:102CE000E80FF91F1082019680329105A9F7089527
:102CF00090910602982B909306020895982F909534
:102D0000809106028923809306020895109206029C
:102D1000089590910502982B909305020895982F9D
:102D20009095809105028923809305020895109261
:102D30000502089590910402982B9093040208953F
:102D4000982F90958091040289238093040208951E
:102D50001092040208958093E30108951092E30114
:102D600008952091000130910101F9013196205E12
:102D70003F4F80E0919191118F5FE217F307D1F7F8
:102D80000895E0910001F091010180910602808395
:102D9000E0910001F0910101808190910502892B61
:102DA0008083E0910001F091010180819091040203
:102DB000892B80839091E301992361F0E0910001D8
:102DC000F09101018081892B80830E94B1168111CD
:102DD0001092E30180910001909101010C94DB0AB3
:102DE0006DEE7EEF90E080E00E94682460E082E07B
:102DF00090E00E94562460E083E090E00E94562418
:102E000060E084E090E00E94562460E085E090E07D
:102E10000C94562490E080E00E9450249C0181E0B4
:102E20002D3E3E4F09F080E0089582E090E00C9442
:102E30004824682F82E090E00C94562483E090E0D0
:102E40000C944824682F83E090E00C94562484E08E
:102E500090E00C944824682F84E090E00C94562471
:102E600080913E02843039F11092080288E190E0AE
:102E700020E40FB6F894A895809360000FBE2093CD
:102E8000600080E00E94290783B7817F846083BF50
:102E900083B7816083BF7894889583B78E7F83BF23
:102EA0000FB6F894A89580916000886180936000C7
:102EB000109260000FBE089508950895CF930E9468
:102EC0005C170E94F3090E945D17C0E08C2F0E94DE
:102ED000C00A892B31F4CF5FC530C1F780E0CF91B4
:102EE000089581E0FCCF0E94CA0F0E94CF0A0C9483
:102EF00029071F921FB61F9211248F939F93AF93A0
:102F0000BF9380910802811113C080913402909187
:102F10003502A0913602B09137024196A11DB11D34
:102F20008093340290933502A0933602B093370217
:102F3000BF91AF919F918F911F901FBE1F901895C9
:102F400082E084BD93E095BD9AEF97BD80936E00BB
:102F500008952FB7F8948091340290913502A09192
:102F60003602B09137022FBF0895CF92DF92EF92D1
:102F7000FF929C014FB7F8948091340290913502F2
:102F8000A0913602B09137024FBF6C017D01EE2453
:102F9000FF24A90170E060E0C416D506E606F70636
:102FA00038F0821B930BFF90EF90DF90CF90089545
:102FB0000197F7CF1F921FB61F9211248F939F93F3
:102FC000AF93BF938091340290913502A091360265
:102FD000B09137020196A11DB11D809334029093E8
:102FE0003502A0933602B0933702BF91AF919F9103
:102FF0008F911F901FBE1F9018950E94F11FF8948B
:103000002FEF87EA91E6215080409040E1F700C021
:10301000000087E090EBDC01809347029093480228
:10302000A0934902B0934A0288E19CE00FB6F8945D
:10303000A895809360000FBE90936000FFCFAF9281
:10304000BF92CF92DF92EF92FF920F931F93CF9395
:10305000C0E0AA24A394B12CE82EF12C8C2F0E945E
:10306000C00A6C0110E000E0C501002E02C0880F0C
:10307000991F0A94E2F78C219D21892B99F0602FEA
:103080007C2F80E00E942C07E816F90659F481E0B5
:10309000CF911F910F91FF90EF90DF90CF90BF9055
:1030A000AF9008950F5F1F4F0E301105E9F6CF5F07
:1030B000C530A1F680E0ECCFCF93C82F8CE20E9400
:1030C0001F18882321F08C2FCF910C941F1880E0BB
:1030D000CF910895CF93DF9300D000D0CDB7DEB766
:1030E0000E940A17811102C00E94F01695E699838A
:1030F00008C00E94F3098FE39CE90197F1F700C033
:103100000000A981A150A983A111F3CF89E20E94F7
:103110005C18811110C18AE20E945C1881110E9422
:10312000F01685E00E945C1881110E94FD170E9434
:1031300015178093070287E00E945C18882371F0BE
:103140008BE10E945C18882309F4D1C0909107029A
:10315000892F8D7F91FF8260809307028091070203
:103160000E9419170E94271790E0909339028093CC
:10317000380280EE0E945C18882341F0909138025A
:10318000892F8E7F90FF81608093380289E30E94AF
:103190005C18882341F090913802892F8D7F91FF30
:1031A00082608093380282EE0E945C18882341F08E
:1031B00090913802892F8B7F92FF84608093380230
:1031C00086EE0E945C18882341F090913802892F86
:1031D000877F93FF88608093380283EE0E945C189B
:1031E000882341F090913802892F8F7E94FF80616F
:1031F0008093380285E30E945C18882341F0909107
:103200003802892F8F7D95FF80628093380281E399
:103210000E945C18882341F090913802892F8F7B9F
:1032200096FF80648093380281E10E945C188823B5
:1032300041F090913802892F97FB87F9805880934D
:103240003802809138020E942B1787E20E945C1896
:1032500089838EE10E945C18882319F0B981B260DD
:10326000B9838FE10E945C18882319F029812460BA
:10327000298380E20E945C18882319F03981386024
:10328000398381E20E945C18882319F049814061EA
:10329000498382E20E945C18882319F059815062A8
:1032A000598383E20E945C18882319F08981806425
:1032B000898384E20E945C188823B1F19981906827
:1032C000998389810E9422173981232F30E050E0B1
:1032D00040E029833A834B835C83CA01B9010F9094
:1032E0000F900F900F90DF91CF910C9469138EE0A7
:1032F0000E945C18882339F090910702892F8B7FF8
:1033000092FF846029CF80E10E945C1890910702AF
:10331000882329F0892F877F93FF88601DCF892F0D
:103320008E7F90FF816018CFA981A111CACF0E9422
:103330001E17282FCBCF0F900F900F900F90DF917B
:10334000CF91089580910B0280FF12C0609105011A
:1033500085E0689FB001112475956795759567950F
:1033600060387105A8F561157105A1F1862F0895E2
:1033700081FF09C06091050185E0689FB0011124BB
:1033800075956795EDCF6091050182FD0AC080912A
:103390000C028823D1F090910401609105018917F6
:1033A00028F085E0689FB0011124DACF869FB00134
:1033B000112485E0869F9001879F300D1124692F8D
:1033C00070E0C9010E941A24CBCF65E070E0CECF37
:1033D0008FE7089581E0089580910B0280FF0CC073
:1033E0006091030170E07595679575956795611516
:1033F000710549F1862F089581FF06C06091030190
:1034000070E075956795F3CF6091030182FD0BC065
:1034100090910C029923A1F0609102018091030127
:10342000961738F0682F70E06038710500F38FE769
:103430000895899FC001112470E00E941A24F4CFDE
:1034400061E070E0D7CF81E00895803F31F40E94C1
:10345000A219819580930F020895813F19F40E946B
:10346000A219F8CF823F31F40E94A219819580936E
:103470000E020895833F19F40E94A219F8CF893FE4
:1034800029F40E94EC198093100208958A3F21F4D8
:103490000E94EC198195F7CF8B3F31F40E94EC1913
:1034A00081958093110208958C3F19F40E94EC19C4
:1034B000F8CF843F31F480910D02816080930D023A
:1034C0000895853F21F480910D028260F7CF863FF9
:1034D00021F480910D028460F1CF873F21F4809127
:1034E0000D028860EBCF883F21F480910D0280614E
:1034F000E5CF8D3F31F480910B02816080930B0208
:1035000008958E3F21F480910B028260F7CF8F3FA8
:10351000B9F780910B028460F1CF90910E02803F49
:1035200041F480910F0287FD10920F02992371F0F0
:103530000895813F29F480910F021816ACF3F6CF5D
:10354000823F81F497FFF2CF10920E0280910F021A
:1035500090911002892B90911102892B49F71092BA
:103560000C020895833F19F4191674F3DFCF893FD5
:1035700039F4809110021816CCF610921002D6CFB2
:103580008A3F29F48091100287FFD0CFF6CF8B3F7E
:1035900039F48091110287FFC9CF10921102C6CF72
:1035A0008C3F29F4809111021816BCF3BFCF843FE1
:1035B00031F480910D028E7F80930D02B7CF853F4D
:1035C00021F480910D028D7FF7CF863F21F4809109
:1035D0000D028B7FF1CF873F21F480910D02877F11
:1035E000EBCF883F21F480910D028F7EE5CF8D3F98
:1035F00031F480910B028E7F80930B0297CF8E3F28
:1036000021F480910B028D7FF7CF8F3F09F08ECF91
:1036100080910B028B7FF0CF8DE092E00E94E60A52
:103620000E94A91790930A028093090208951F939C
:10363000CF93DF9300D000D000D0CDB7DEB780911C
:10364000090290910A020E94B517AC0180910C0208
:103650002091060130E0811106C0209107019AE017
:10366000299F900111244217530788F020910E02E0
:10367000A0910F02A98310911002B0911102BE8394
:1036800021110FC09A2F912B9B2B09F0B2C02696C7
:103690000FB6F894DEBF0FBECDBFDF91CF911F9163
:1036A00008958F3F19F08F5F80930C02121624F457
:1036B0000E94A21980930E0280910E0287FF05C01E
:1036C0000E94A219819580930E022981121624F47A
:1036D0000E94A21980930F0280910F0287FF05C0FC
:1036E0000E94A219819580930F0280910E02882377
:1036F00009F455C030910F023D83332309F44FC0C4
:10370000282F880F330B440B550B29833A834B83A7
:103710005C83CA01B9010E94212323E333E343E31D
:103720005FE369837A838B839C8369817A818B8150
:103730009C810E94852369837A838B839C83698122
:103740007A818B819C810E94E92260930E028D8197
:10375000082E000C990BAA0BBB0B89839A83AB83B1
:10376000BC83BC01CD010E94212323E333E343E367
:103770005FE369837A838B839C8369817A818B8100
:103780009C810E94852369837A838B839C836981D2
:103790007A818B819C810E94E92260930F0211162D
:1037A00024F40E94EC19809310028091100287FF8C
:1037B00005C00E94EC198195809310029E81191614
:1037C00024F40E94EC19809311028091110287FF6A
:1037D00005C00E94EC1981958093110226960FB6C0
:1037E000F894DEBF0FBECDBFDF91CF911F910C9437
:1037F0000C1B8F3F09F057CF68CF85E0EDE0F2E07A
:10380000DF011D928A95E9F710920C0210920B02CB
:103810000895809132020895CF93DF9300D00F92E4
:10382000CDB7DEB720913E02243019F523E029837D
:103830008A839B832093E9008FEF9091E800815069
:1038400095FD06C095ED9A95F1F700008111F5CF31
:103850008091E80085FF0DC050E040E063E070E03B
:10386000CE0101960E94691E8091E8008E778093B8
:10387000E8000F900F900F90DF91CF910895CF93B4
:10388000DF9300D00F92CDB7DEB79C0180913E024E
:10389000843031F582E08983205831093B832A83C3
:1038A00083E08093E9008FEF9091E800815095FDCF
:1038B00006C095ED9A95F1F700008111F5CF809142
:1038C000E80085FF0DC050E040E063E070E0CE010D
:1038D00001960E94691E8091E8008E778093E8002F
:1038E0000F900F900F90DF91CF91089520913E029D
:1038F0002430F1F422E02093E9002FEF3091E8002A
:10390000215035FD06C035ED3A95F1F70000211143
:10391000F5CF2091E80025FF0BC050E040E065E0C6
:1039200070E00E94691E8091E8008E778093E80025
:103930000895CF93DF93D82FC92F80913E02843012
:10394000F1F4909112019923E9F09091380297FFD8
:1039500019C08093E9008FEF9091E800815095FDA8
:1039600006C095E19A95F1F700008111F5CF80919D
:10397000E80050E040E060E270E085FD1AC0DF91B1
:10398000CF91089581E08093E9008FEF9091E80056
:10399000815095FD06C095ED9A95F1F700008111D3
:1039A000F5CF8091E80085FFEACF50E040E068E085
:1039B00070E08D2F9C2F0E94691E8091E8008E7709
:1039C0008093E80080E2ED2FFC2FA2E1B2E00190AD
:1039D0000D928A95E1F7D3CF80913D02811109C004
:1039E0000E94F11F0E944E208091E200846080932B
:1039F000E200089510923D020895089508950C94F0
:103A0000731742E061EC81E00E946D1F42E061ECBF
:103A100082E00E946D1F42E061EC83E00E946D1F16
:103A200042E261EC84E00C946D1F80914002893089
:103A300089F148F4823009F494C0833009F44FC00E
:103A4000813041F008958A3009F47BC08B3009F44D
:103A500061C0089580913F02813A09F03FC0809192
:103A6000E800877F8093E8008091430290914402B0
:103A7000892B61F460E282E192E070E00E94B81E5E
:103A80008091E8008B778093E800089560E090E0F3
:103A900080E0F3CF80913F02813201F580914302B3
:103AA00090914402009711F00397C1F48091E800CF
:103AB000877F8093E8008091E80082FF0BC08091AF
:103AC000F100809332028091E8008B778093E800C8
:103AD0000C94A11F80913E028111EDCF0895809139
:103AE0003F02813AD9F78091430290914402892B99
:103AF000A9F78091E800877F8093E8008091E80033
:103B000080FFFCCF809112018093F1008091E8004A
:103B10008E77DCCF80913F02813201F780914302A2
:103B200090914402892BD1F68091E800877F8093A1
:103B3000E8000E94A11F80914102809312010C9421
:103B4000CA0F80913F02813249F68091E800877F59
:103B50008093E8000E94A11F80914202809333026B
:103B6000089580913F02813A09F0B8CF8091E80032
:103B7000877F8093E8008091E80080FFFCCF8091F0
:103B80003302C2CF84B7877F84BF0FB6F894A8955D
:103B900080916000886180936000109260000FBE89
:103BA00080E880936100109261000E941E0B0E94C9
:103BB000F11F0E944E208091E20084608093E20019
:103BC00078940E94CE220E94200B88E091E00E940F
:103BD000CA0A80913E02853019F00E94260BF9CF67
:103BE0000E94301780913C02882399F30E945E174F
:103BF000882379F30E94531EECCF9C01DA01892FB0
:103C0000992783309105C1F068F48130910509F45A
:103C100045C0029761F48DE690E02CE939E02D93E0
:103C20003C93089581329105E1F0829739F190E05B
:103C300080E030E020E0F3CFC9019927213059F02E
:103C40008230910559F0E8E9F9E0892B81F78491F8
:103C500090E09F01E4CFE0E8F9E0F9CFECE6F9E08D
:103C6000F6CF643020F7E62FF0E0EE0FFF1FEE5C9A
:103C7000FE4F2081318189E090E0D1CF6430B8F6E9
:103C800070E0FB01EE0FFF1FE65DFE4F20813181EA
:103C90006A5D7E4FFB01808190E0C1CF82E190E0C0
:103CA00029E03AE0BCCF80E189BD82E189BD09B459
:103CB00000FEFDCF8091D8008F7D8093D800809149
:103CC000E00082608093E0008091E00081FDFCCF05
:103CD0000895AF92BF92CF92DF92FF920F931F93FE
:103CE000CF93DF936C01EB018A010E94C01FF82E75
:103CF000811123C00115110539F0F80180819181EE
:103D0000C81BD90BC80ED91EB12CA12C2097A9F025
:103D10008091E80085FD22C08091E8008E77809335
:103D2000E80001151105A1F0F80180819181A80E2C
:103D3000B91EB182A08285E0F82E8F2DDF91CF9140
:103D40001F910F91FF90DF90CF90BF90AF9008959B
:103D50000E94C01F8823D1F2F82EEFCFF601819187
:103D60006F018093F1002197FFEFAF1ABF0ACECF0A
:103D7000FC01CB01209145023091460226173707FE
:103D800090F0009729F42091E8002E772093E80026
:103D900040E0009751F4411108C08091E80082FF93
:103DA00031C080E00895C901F3CF20913E02222363
:103DB000A9F12530A9F12091E80023FD2DC0209123
:103DC000E80022FDEACF2091E80020FFE2CF309109
:103DD000F3002091F200009719F02830310558F0D7
:103DE00041E02830310509F040E02091E8002E77CD
:103DF0002093E800CECF41914093F10001972F5FCF
:103E00003F4FE9CF80913E02882341F0853041F059
:103E10008091E80083FFC1CF81E0089582E008959A
:103E200083E00895FC01CB012091450230914602C8
:103E30002617370790F0009729F42091E8002E7795
:103E40002093E80040E0009751F4411108C08091B0
:103E5000E80082FF32C080E00895C901F3CF2091CD
:103E60003E022223B1F12530B1F12091E80023FD7B
:103E70002EC02091E80022FDEACF2091E80020FF2B
:103E8000E2CF3091F3002091F200009719F0283032
:103E9000310558F041E02830310509F040E020912B
:103EA000E8002E772093E800CECF44914093F100B4
:103EB000319601972F5F3F4FE8CF80913E028823D4
:103EC00041F0853041F08091E80083FFC0CF81E070
:103ED000089582E0089583E00895982F973028F0A0
:103EE0008F708093E90081E008959093E900242F7A
:103EF000762F50E0981731F07091EC002091ED0092
:103F00005091F00021FD02C09F5FE8CF3091EB009F
:103F10003E7F3093EB003091ED003D7F3093ED001C
:103F20003091EB0031603093EB007093EC00209304
:103F3000ED005093F0002091EE0027FDE5CF80E0EA
:103F4000089580913F0287FF13C08091E80082FFAF
:103F500006C08091E8008B778093E80004C08091D0
:103F60003E028111F2CF089580913E028823D9F359
:103F70008091E80080FFF8CF8091E8008E77ECCF49
:103F80002091E4003091E50095E6A9012091EC0034
:103F9000822F817020FF06C08091E80080FF06C05C
:103FA00080E008952091E80022FD1AC080913E0231
:103FB000882389F0853089F08091EB0085FD0FC062
:103FC0002091E4003091E50042175307F9F2915037
:103FD000E1F684E0089582E0089583E0089581E0A9
:103FE00008950E945F200E946720E0EEF0E080814B
:103FF00081608083E8EDF0E080818F77808319BC59
:10400000A7EDB0E08C918E7F8C9380818F7E808332
:1040100010923D0208950F931F93CF93DF930E9458
:104020005F200E946720C8EDD0E088818F77888369
:1040300088818068888388818F7D888319BC1092ED
:104040003E0210923A0210923C0210923B0200EEA5
:1040500010E0F80180818B7F808388818160888374
:1040600042E060E080E00E946D1FE1EEF0E08081C0
:104070008E7F8083E2EEF0E08081816080838081AA
:1040800088608083F80180818E7F80838881806151
:104090008883DF91CF911F910F910895E8EDF0E0B3
:1040A00080818F7E8083E7EDF0E080818160808376
:1040B00084E082BF81E080933D020C940B20E8ED08
:1040C000F0E080818E7F80831092E200089510924C
:1040D000DA001092E10008951F920F920FB60F922E
:1040E00011242F933F934F935F936F937F938F93FD
:1040F0009F93AF93BF93EF93FF938091E10082FF73
:104100000BC08091E20082FF07C08091E1008B7FAD
:104110008093E1000E94CD228091DA0080FF19C0D7
:104120008091D80080FF15C08091DA008E7F809347
:10413000DA008091D90080FF94C080E189BD82E1DE
:1041400089BD09B400FEFDCF81E080933E020E944C
:10415000EC1C8091E10080FF19C08091E20080FF9B
:1041600015C08091E2008E7F8093E2008091E20092
:1041700080618093E2008091D80080628093D800B3
:1041800019BC85E080933E020E94FE1C8091E100F4
:1041900084FF29C08091E20084FF25C080E189BDB1
:1041A00082E189BD09B400FEFDCF8091D8008F7DEA
:1041B0008093D8008091E1008F7E8093E100809110
:1041C000E2008F7E8093E2008091E2008160809324
:1041D000E20080913A02882309F449C084E0809388
:1041E0003E020E94FF1C8091E10083FF29C0809164
:1041F000E20083FF25C08091E100877F8093E1008A
:1042000082E080933E0210923A028091E1008E7F1C
:104210008093E1008091E2008E7F8093E2008091A4
:10422000E20080618093E20042E060E080E00E9472
:104230006D1F8091F00088608093F0000E94FD1C4B
:10424000FF91EF91BF91AF919F918F917F916F916E
:104250005F914F913F912F910F900FBE0F901F9044
:10426000189519BC10923E020E94FA1C72CF8091E0
:10427000E30087FD02C081E0B2CF83E0B0CF1F92A0
:104280000F920FB60F9211242F933F934F935F938A
:104290006F937F938F939F93AF93BF93CF93DF934E
:1042A000EF93FF93D091E900DF708091EC00C82F6D
:1042B000C17080FDC0E81092E9008091F000877F16
:1042C0008093F00078940E9483211092E9008091FD
:1042D000F00088608093F000CD2BCF70C093E90090
:1042E000FF91EF91DF91CF91BF91AF919F918F910E
:1042F0007F916F915F914F913F912F910F900FBEE2
:104300000F901F9018951F93CF93DF93CDB7DEB713
:10431000AA970FB6F894DEBF0FBECDBF8FE392E031
:10432000FC0101962091F100208322E0873492075E
:10433000B9F70E94151D8091E80083FF16C1809196
:104340003F02909140029A3008F00FC1E92FF0E04F
:10435000EE55FB4D0C942E24803881F0823809F004
:1043600004C1809143028F708093E9008091EB003B
:1043700085FB882780F91092E90006C080913B02F6
:1043800090913C02911182609091E800977F909308
:10439000E8008093F1001092F1008091E8008E77A0
:1043A000E0C0882309F4CEC0823009F0DEC08091DD
:1043B00041028111D1C0809143028F7009F4D5C0B0
:1043C0008093E9002091EB0020FFC6C0933031F4C8
:1043D0008091EB0080628093EB00BEC09091EB0077
:1043E00090619093EB0021E030E001C0220F8A95AC
:1043F000EAF72093EA001092EA008091EB008860CF
:10440000EACF8111B2C0109141021F778091E30081
:104410008078812B8093E3008091E800877F8093F0
:10442000E8000E94A11F8091E80080FFFCCF8091EE
:10443000E30080688093E30082E0111183E08093C1
:104440003E0293C08058823008F08FC080914102B4
:10445000909142028C3D23E09207A1F583E08A838C
:104460008AE289834FB7F894DE01139620E03EE09C
:1044700051E2E32FF0E050935700E49120FF03C096
:10448000E295EF703F5FEF708E2F90E0EA30C0F062
:10449000C7968D939D932F5F243159F74FBF80911D
:1044A000E800877F8093E8006AE270E0CE01019621
:1044B0000E94B81E8091E8008B778093E80055C079
:1044C000C096E7CFAE014F5F5F4F609143020E94FD
:1044D000FD1DBC01892B09F448C08091E800877F4D
:1044E0008093E80089819A810E94121FE3CF80386F
:1044F000E1F58091E800877F8093E80080913A029F
:104500008093F1004ACF811130C0909141029230E6
:1045100060F58091E800877F8093E80090933A02ED
:104520000E94A11F80913A02882311F084E005C007
:104530008091E30087FDFACF81E080933E020E94E4
:10454000011D13C080914102813079F481E09330E4
:1045500009F080E080933C021092E9008091E8002D
:10456000877F8093E8000E94A11F8091E80083FF6D
:104570000AC08091E800877F8093E8008091EB007B
:1045800080628093EB00AA960FB6F894DEBF0FBE50
:10459000CDBFDF91CF911F9108950895CF93809162
:1045A0003E028823A1F0C091E900CF709091EC0009
:1045B000892F817090FD80E8C82B1092E9008091CE
:1045C000E80083FD0E948321CF70C093E900CF9162
:1045D00008950E94F0226894B1110C947F230895ED
:1045E0000E94642388F09F5798F0B92F9927B751FC
:1045F000B0F0E1F0660F771F881F991F1AF0BA9587
:10460000C9F714C0B13091F00E947E23B1E0089543
:104610000C947E23672F782F8827B85F39F0B93F35
:10462000CCF3869577956795B395D9F73EF4909539
:104630008095709561957F4F8F4F9F4F0895E894B7
:1046400009C097FB3EF490958095709561957F4FDA
:104650008F4F9F4F9923A9F0F92F96E9BB27939588
:10466000F695879577956795B795F111F8CFFAF498
:10467000BB0F11F460FF1BC06F5F7F4F8F4F9F4FC9
:1046800016C0882311F096E911C0772321F09EE827
:10469000872F762F05C0662371F096E8862F70E08D
:1046A00060E02AF09A95660F771F881FDAF7880F67
:1046B0009695879597F9089557FD9058440F551F83
:1046C00059F05F3F71F04795880F97FB991F61F094
:1046D0009F3F79F087950895121613061406551F0B
:1046E000F2CF4695F1DF08C0161617061806991F77
:1046F000F1CF86957105610508940895E894BB276C
:1047000066277727CB0197F908950E9498230C9488
:1047100009240E94FB2338F00E94022420F09523F4
:1047200011F00C94F2230C94F82311240C947F23A1
:104730000E945C2370F3959FC1F3950F50E0551FC5
:10474000629FF001729FBB27F00DB11D639FAA27E6
:10475000F00DB11DAA1F649F6627B00DA11D661F35
:10476000829F2227B00DA11D621F739FB00DA11D56
:10477000621F839FA00D611D221F749F3327A00D10
:10478000611D231F849F600D211D822F762F6A2FAC
:1047900011249F5750409AF0F1F088234AF0EE0F11
:1047A000FF1FBB1F661F771F881F91505040A9F73E
:1047B0009E3F510580F00C94F2230C947F235F3FC1
:1047C000E4F3983ED4F3869577956795B795F7957A
:1047D000E7959F5FC1F7FE2B880F911D96958795F2
:1047E00097F9089597F99F6780E870E060E0089571
:1047F0009FEF80EC089500240A94161617061806F9
:104800000906089500240A941216130614060506D4
:104810000895092E0394000C11F4882352F0BB0F65
:1048200040F4BF2B11F460FF04C06F5F7F4F8F4FC8
:104830009F4F089597FB072E16F4009407D077FD3D
:1048400009D00E94342407FC05D03EF49095819550
:104850009F4F0895709561957F4F0895EE0FFF1F4C
:104860000590F491E02D0994AA1BBB1B51E107C0F0
:10487000AA1FBB1FA617B70710F0A61BB70B881FF0
:10488000991F5A95A9F780959095BC01CD0108957F
:10489000F999FECF92BD81BDF89A992780B5089508
:1048A000A8E1B0E042E050E00C947024262FF99982
:1048B000FECF92BD81BDF89A019700B4021639F07F
:1048C0001FBA20BD0FB6F894FA9AF99A0FBE089550
:1048D0000196272F0E9457240C945624DC01CB010B
:1048E000FC01F999FECF06C0F2BDE1BDF89A319600
:1048F00000B40D9241505040B8F70895F894FFCF9E
:104900009406A006A406A806AC06B006B406B8062F
:10491000BC06C006C406C806CC06D006D406D80617
:10492000DC06E006750D750DCD0DCD0D110E2D0EAD
:10493000A50DA50D380EA50D000F000F6B0FA50DD1
:10494000A50D740FAC21D121B522D121B5220122B0
:084950002222B5227722832206
:10495800E4012808140A321E091C991C761C3F1C05
:104968000C1C0137909192939596F0F1F4F5F6F7B7
:10497800976766363534404D3639D70A8A0A540A5D
:0A4988001B0AAE09C709E009F9098E
:00000001FF
